{
    "abi": [
        {
            "type": "function",
            "name": "createGame",
            "inputs": [
                {
                    "name": "_creator",
                    "type": "bytes32",
                    "internalType": "bytes32"
                }
            ],
            "outputs": [
                {
                    "name": "",
                    "type": "uint256",
                    "internalType": "uint256"
                }
            ],
            "stateMutability": "nonpayable"
        },
        {
            "type": "function",
            "name": "endGame",
            "inputs": [
                {
                    "name": "gameId",
                    "type": "uint256",
                    "internalType": "uint256"
                },
                {
                    "name": "_actor",
                    "type": "bytes32",
                    "internalType": "bytes32"
                }
            ],
            "outputs": [],
            "stateMutability": "nonpayable"
        },
        {
            "type": "function",
            "name": "gameActions",
            "inputs": [
                {
                    "name": "",
                    "type": "uint256",
                    "internalType": "uint256"
                },
                {
                    "name": "",
                    "type": "uint256",
                    "internalType": "uint256"
                }
            ],
            "outputs": [
                {
                    "name": "player",
                    "type": "bytes32",
                    "internalType": "bytes32"
                },
                {
                    "name": "actionHash",
                    "type": "bytes32",
                    "internalType": "bytes32"
                },
                {
                    "name": "timestamp",
                    "type": "uint256",
                    "internalType": "uint256"
                }
            ],
            "stateMutability": "view"
        },
        {
            "type": "function",
            "name": "games",
            "inputs": [
                {
                    "name": "",
                    "type": "uint256",
                    "internalType": "uint256"
                }
            ],
            "outputs": [
                {
                    "name": "id",
                    "type": "uint256",
                    "internalType": "uint256"
                },
                {
                    "name": "isActive",
                    "type": "bool",
                    "internalType": "bool"
                },
                {
                    "name": "currentPlayerIndex",
                    "type": "uint256",
                    "internalType": "uint256"
                },
                {
                    "name": "stateHash",
                    "type": "bytes32",
                    "internalType": "bytes32"
                },
                {
                    "name": "lastActionTimestamp",
                    "type": "uint256",
                    "internalType": "uint256"
                },
                {
                    "name": "turnCount",
                    "type": "uint256",
                    "internalType": "uint256"
                },
                {
                    "name": "directionClockwise",
                    "type": "bool",
                    "internalType": "bool"
                },
                {
                    "name": "isStarted",
                    "type": "bool",
                    "internalType": "bool"
                }
            ],
            "stateMutability": "view"
        },
        {
            "type": "function",
            "name": "getActiveGames",
            "inputs": [],
            "outputs": [
                {
                    "name": "",
                    "type": "uint256[]",
                    "internalType": "uint256[]"
                }
            ],
            "stateMutability": "view"
        },
        {
            "type": "function",
            "name": "getGameActions",
            "inputs": [
                {
                    "name": "gameId",
                    "type": "uint256",
                    "internalType": "uint256"
                }
            ],
            "outputs": [
                {
                    "name": "",
                    "type": "tuple[]",
                    "internalType": "struct UnoGame.Action[]",
                    "components": [
                        {
                            "name": "player",
                            "type": "bytes32",
                            "internalType": "bytes32"
                        },
                        {
                            "name": "actionHash",
                            "type": "bytes32",
                            "internalType": "bytes32"
                        },
                        {
                            "name": "timestamp",
                            "type": "uint256",
                            "internalType": "uint256"
                        }
                    ]
                }
            ],
            "stateMutability": "view"
        },
        {
            "type": "function",
            "name": "getGameState",
            "inputs": [
                {
                    "name": "gameId",
                    "type": "uint256",
                    "internalType": "uint256"
                }
            ],
            "outputs": [
                {
                    "name": "players",
                    "type": "bytes32[]",
                    "internalType": "bytes32[]"
                },
                {
                    "name": "isActive",
                    "type": "bool",
                    "internalType": "bool"
                },
                {
                    "name": "currentPlayerIndex",
                    "type": "uint256",
                    "internalType": "uint256"
                },
                {
                    "name": "stateHash",
                    "type": "bytes32",
                    "internalType": "bytes32"
                },
                {
                    "name": "lastActionTimestamp",
                    "type": "uint256",
                    "internalType": "uint256"
                },
                {
                    "name": "turnCount",
                    "type": "uint256",
                    "internalType": "uint256"
                },
                {
                    "name": "directionClockwise",
                    "type": "bool",
                    "internalType": "bool"
                },
                {
                    "name": "isStarted",
                    "type": "bool",
                    "internalType": "bool"
                }
            ],
            "stateMutability": "view"
        },
        {
            "type": "function",
            "name": "getNotStartedGames",
            "inputs": [],
            "outputs": [
                {
                    "name": "",
                    "type": "uint256[]",
                    "internalType": "uint256[]"
                }
            ],
            "stateMutability": "view"
        },
        {
            "type": "function",
            "name": "isPlayerTurn",
            "inputs": [
                {
                    "name": "gameId",
                    "type": "uint256",
                    "internalType": "uint256"
                },
                {
                    "name": "player",
                    "type": "bytes32",
                    "internalType": "bytes32"
                }
            ],
            "outputs": [
                {
                    "name": "",
                    "type": "bool",
                    "internalType": "bool"
                }
            ],
            "stateMutability": "view"
        },
        {
            "type": "function",
            "name": "joinGame",
            "inputs": [
                {
                    "name": "gameId",
                    "type": "uint256",
                    "internalType": "uint256"
                },
                {
                    "name": "_joinee",
                    "type": "bytes32",
                    "internalType": "bytes32"
                }
            ],
            "outputs": [],
            "stateMutability": "nonpayable"
        },
        {
            "type": "function",
            "name": "startGame",
            "inputs": [
                {
                    "name": "gameId",
                    "type": "uint256",
                    "internalType": "uint256"
                },
                {
                    "name": "initialStateHash",
                    "type": "bytes32",
                    "internalType": "bytes32"
                }
            ],
            "outputs": [],
            "stateMutability": "nonpayable"
        },
        {
            "type": "function",
            "name": "submitAction",
            "inputs": [
                {
                    "name": "gameId",
                    "type": "uint256",
                    "internalType": "uint256"
                },
                {
                    "name": "actionHash",
                    "type": "bytes32",
                    "internalType": "bytes32"
                },
                {
                    "name": "_actor",
                    "type": "bytes32",
                    "internalType": "bytes32"
                }
            ],
            "outputs": [],
            "stateMutability": "nonpayable"
        },
        {
            "type": "event",
            "name": "ActionSubmitted",
            "inputs": [
                {
                    "name": "gameId",
                    "type": "uint256",
                    "indexed": true,
                    "internalType": "uint256"
                },
                {
                    "name": "player",
                    "type": "bytes32",
                    "indexed": false,
                    "internalType": "bytes32"
                },
                {
                    "name": "actionHash",
                    "type": "bytes32",
                    "indexed": false,
                    "internalType": "bytes32"
                }
            ],
            "anonymous": false
        },
        {
            "type": "event",
            "name": "GameCreated",
            "inputs": [
                {
                    "name": "gameId",
                    "type": "uint256",
                    "indexed": true,
                    "internalType": "uint256"
                },
                {
                    "name": "creator",
                    "type": "bytes32",
                    "indexed": false,
                    "internalType": "bytes32"
                }
            ],
            "anonymous": false
        },
        {
            "type": "event",
            "name": "GameEnded",
            "inputs": [
                {
                    "name": "gameId",
                    "type": "uint256",
                    "indexed": true,
                    "internalType": "uint256"
                }
            ],
            "anonymous": false
        },
        {
            "type": "event",
            "name": "GameStarted",
            "inputs": [
                {
                    "name": "gameId",
                    "type": "uint256",
                    "indexed": true,
                    "internalType": "uint256"
                },
                {
                    "name": "initialStateHash",
                    "type": "bytes32",
                    "indexed": false,
                    "internalType": "bytes32"
                }
            ],
            "anonymous": false
        },
        {
            "type": "event",
            "name": "PlayerJoined",
            "inputs": [
                {
                    "name": "gameId",
                    "type": "uint256",
                    "indexed": true,
                    "internalType": "uint256"
                },
                {
                    "name": "player",
                    "type": "bytes32",
                    "indexed": false,
                    "internalType": "bytes32"
                }
            ],
            "anonymous": false
        },
        {
            "type": "error",
            "name": "ReentrancyGuardReentrantCall",
            "inputs": []
        }
    ],
    "bytecode": {
        "object": "0x6080604052348015600f57600080fd5b506001600055611324806100246000396000f3fe608060405234801561001057600080fd5b50600436106100b45760003560e01c8063ac95267111610071578063ac952671146101d9578063b5870a68146101ec578063b71d79f31461020c578063bfb51ac91461023a578063cc3415d81461024d578063ffde0c741461025557600080fd5b806305373714146100b9578063117a5b90146100ce5780631b76929c1461016d578063426fe19714610182578063457391e5146101a55780636e1ef8b2146101c6575b600080fd5b6100cc6100c736600461101b565b61027c565b005b6101296100dc366004611047565b60036020819052600091825260409091208054600282015492820154600483015460058401546006850154600790950154939560ff90811695939492939192808216916101009091041688565b604080519889529615156020890152958701949094526060860192909252608085015260a0840152151560c0830152151560e0820152610100015b60405180910390f35b6101756103e0565b6040516101649190611060565b6101956101903660046110a3565b610438565b6040519015158152602001610164565b6101b86101b3366004611047565b610479565b604051908152602001610164565b6100cc6101d43660046110a3565b610663565b6100cc6101e73660046110a3565b610720565b6101ff6101fa366004611047565b610818565b60405161016491906110c5565b61021f61021a3660046110a3565b610941565b60408051938452602084019290925290820152606001610164565b6100cc6102483660046110a3565b610983565b610175610a8b565b610268610263366004611047565b610c19565b604051610164989796959493929190611119565b610284610d71565b6000838152600360205260409020600281015460ff166102bf5760405162461bcd60e51b81526004016102b6906111a3565b60405180910390fd5b6102c98483610438565b6103055760405162461bcd60e51b815260206004820152600d60248201526c2737ba103cb7bab9103a3ab93760991b60448201526064016102b6565b6004810154604080516020810192909252810184905260600160408051601f198184030181528282528051602091820120600480860191909155600088815290825282812060608501845286855284830188815242948601948552815460018181018455928452939092209451600390930290940191825551928101929092555160029091015561039584610d9b565b604080518381526020810185905285917ff1e0c443bd9ee34af29bcb74145f7bb12125c82a95407bf5ad7b26c8b6e5fe5f910160405180910390a2506103db6001600055565b505050565b6060600280548060200260200160405190810160405280929190818152602001828054801561042e57602002820191906000526020600020905b81548152602001906001019080831161041a575b5050505050905090565b6000828152600360208190526040822090810154600190910180548492908110610464576104646111cf565b90600052602060002001541490505b92915050565b6000610483610d71565b60018054906000610493836111fb565b90915550506001805460408051426020808301829052448385015260608084018990528451808503909101815260808401855280519082012060a0840186905260c08085018290528551808603909101815260e0850180875281519184019190912061020086018752878252865160008082528186018952610100880191825261012088018b9052610140880181905261016088018390526101808801969096526101a087018690526101c087018a90526101e0909601859052878552600384529590932083518155935180519697919693949361057993928501929190910190610fbb565b506040828101516002838101805460ff191692151592909217909155606084015160038401556080840151600484015560a0840151600584015560c0840151600684015560e0840151600790930180546101009586015161ffff1990911694151561ff001916949094179315159094029290921790925580546001810182556000919091527f405787fa12a823e0f2b7631cc41b3ba8828b3321ca811111fa75cd3aa3bb5ace018490555185815283907fe0eb15f8324648c97893a63e725995febbf40c5ed00da9249b0b1ea5173796f79060200160405180910390a25050600160005592915050565b6000828152600360205260409020600281015460ff166106955760405162461bcd60e51b81526004016102b6906111a3565b61069f8383610438565b6106db5760405162461bcd60e51b815260206004820152600d60248201526c2737ba103cb7bab9103a3ab93760991b60448201526064016102b6565b60028101805460ff191690556106f083610ebb565b60405183907fce24807f7e4b60b4e641462f13029fa5e5f79075bbc3f8e5cd43ecd19661d76090600090a2505050565b610728610d71565b60008281526003602052604090206002015460ff166107595760405162461bcd60e51b81526004016102b6906111a3565b600082815260036020526040902060010154600a116107a95760405162461bcd60e51b815260206004820152600c60248201526b11d85b59481a5cc8199d5b1b60a21b60448201526064016102b6565b6000828152600360209081526040808320600190810180549182018155845291909220018290555182907f52ad9218837bfeb0f1fd09a5e3c004c4b73999fa95ebf54cd2233f8ae44f9d64906108029084815260200190565b60405180910390a26108146001600055565b5050565b606060008211801561082c57506001548211155b61086a5760405162461bcd60e51b815260206004820152600f60248201526e125b9d985b1a590819d85b59481251608a1b60448201526064016102b6565b60008281526003602052604090205482146108bd5760405162461bcd60e51b815260206004820152601360248201527211d85b5948191bd95cc81b9bdd08195e1a5cdd606a1b60448201526064016102b6565b600082815260046020908152604080832080548251818502810185019093528083529193909284015b8282101561093657838290600052602060002090600302016040518060600160405290816000820154815260200160018201548152602001600282015481525050815260200190600101906108e6565b505050509050919050565b6004602052816000526040600020818154811061095d57600080fd5b600091825260209091206003909102018054600182015460029092015490935090915083565b60008281526003602052604090206007810154610100900460ff16156109e25760405162461bcd60e51b815260206004820152601460248201527311d85b5948185b1c9958591e481cdd185c9d195960621b60448201526064016102b6565b600181015460021115610a2c5760405162461bcd60e51b81526020600482015260126024820152714e6f7420656e6f75676820706c617965727360701b60448201526064016102b6565b60078101805461ff0019166101001790556004810182905542600582015560405183907fb4a411a01bc386893734d83e17411a973f9dbb12732aff7a88d6964f1360b16090610a7e9085815260200190565b60405180910390a2505050565b60025460609060009067ffffffffffffffff811115610aac57610aac611214565b604051908082528060200260200182016040528015610ad5578160200160208202803683370190505b5090506000805b600254811015610b7f57600060028281548110610afb57610afb6111cf565b6000918252602080832090910154808352600390915260409091206007015490915060ff61010090910416158015610b455750600081815260036020819052604090912060010154105b15610b765780848481518110610b5d57610b5d6111cf565b602090810291909101015282610b72816111fb565b9350505b50600101610adc565b5060008167ffffffffffffffff811115610b9b57610b9b611214565b604051908082528060200260200182016040528015610bc4578160200160208202803683370190505b50905060005b82811015610c1157838181518110610be457610be46111cf565b6020026020010151828281518110610bfe57610bfe6111cf565b6020908102919091010152600101610bca565b509392505050565b606060008060008060008060008089118015610c3757506001548911155b610c755760405162461bcd60e51b815260206004820152600f60248201526e125b9d985b1a590819d85b59481251608a1b60448201526064016102b6565b600089815260036020526040902080548a14610cc95760405162461bcd60e51b815260206004820152601360248201527211d85b5948191bd95cc81b9bdd08195e1a5cdd606a1b60448201526064016102b6565b60028101546003820154600483015460058401546006850154600786015460018701805460408051602080840282018101909252828152929860ff9081169897969594808216946101009091049091169290918a9190830182828015610d4e57602002820191906000526020600020905b815481526020019060010190808311610d3a575b505050505097509850985098509850985098509850985050919395975091939597565b600260005403610d9457604051633ee5aeb560e01b815260040160405180910390fd5b6002600055565b60008181526003602052604081206006810180549192610dba836111fb565b909155505060018082015460038301549091610dd6919061122a565b610de0919061123d565b60038201554260058201556040805161012081018252825481526001830180548351602082810282018101909552818152610eb2948693818601939091830182828015610e4c57602002820191906000526020600020905b815481526020019060010190808311610e38575b5050509183525050600282015460ff90811615156020830152600383015460408301526004830154606083015260058301546080830152600683015460a0830152600790920154808316151560c08301526101009004909116151560e090910152610f69565b60049091015550565b60005b600254811015610814578160028281548110610edc57610edc6111cf565b906000526020600020015403610f615760028054610efc9060019061125f565b81548110610f0c57610f0c6111cf565b906000526020600020015460028281548110610f2a57610f2a6111cf565b6000918252602090912001556002805480610f4757610f47611272565b600190038181906000526020600020016000905590555050565b600101610ebe565b8051602080830151604080850151606086015160a087015160c088015160e08901519451600098610f9e989097969101611288565b604051602081830303815290604052805190602001209050919050565b828054828255906000526020600020908101928215610ff6579160200282015b82811115610ff6578251825591602001919060010190610fdb565b50611002929150611006565b5090565b5b808211156110025760008155600101611007565b60008060006060848603121561103057600080fd5b505081359360208301359350604090920135919050565b60006020828403121561105957600080fd5b5035919050565b602080825282518282018190526000918401906040840190835b8181101561109857835183526020938401939092019160010161107a565b509095945050505050565b600080604083850312156110b657600080fd5b50508035926020909101359150565b602080825282518282018190526000918401906040840190835b81811015611098578351805184526020810151602085015260408101516040850152506060830192506020840193506001810190506110df565b610100808252895190820181905260009060208b0190610120840190835b81811015611155578351835260209384019390920191600101611137565b50508a1515602085015291506111689050565b8760408301528660608301528560808301528460a083015261118e60c083018515159052565b82151560e08301529998505050505050505050565b60208082526012908201527147616d65206973206e6f742061637469766560701b604082015260600190565b634e487b7160e01b600052603260045260246000fd5b634e487b7160e01b600052601160045260246000fd5b60006001820161120d5761120d6111e5565b5060010190565b634e487b7160e01b600052604160045260246000fd5b80820180821115610473576104736111e5565b60008261125a57634e487b7160e01b600052601260045260246000fd5b500690565b81810381811115610473576104736111e5565b634e487b7160e01b600052603160045260246000fd5b878152600060208201885160208a0160005b828110156112b857815184526020938401939091019060010161129a565b50505096151560f890811b885260018801969096525050602185019290925260418401521515901b60618201526062019291505056fea264697066735822122090aa81b9a523c7221f6cd37397a0f8329a88ee629500da86582be9255bb933b264736f6c634300081c0033",
        "linkReferences": {}
    },
    "methodIdentifiers": {
        "createGame(bytes32)": "457391e5",
        "endGame(uint256,bytes32)": "6e1ef8b2",
        "gameActions(uint256,uint256)": "b71d79f3",
        "games(uint256)": "117a5b90",
        "getActiveGames()": "1b76929c",
        "getGameActions(uint256)": "b5870a68",
        "getGameState(uint256)": "ffde0c74",
        "getNotStartedGames()": "cc3415d8",
        "isPlayerTurn(uint256,bytes32)": "426fe197",
        "joinGame(uint256,bytes32)": "ac952671",
        "startGame(uint256,bytes32)": "bfb51ac9",
        "submitAction(uint256,bytes32,bytes32)": "05373714"
    },
    "id": 21
}