{
    "abi": [
        {
            "type": "function",
            "name": "createGame",
            "inputs": [
                {
                    "name": "_creator",
                    "type": "bytes32",
                    "internalType": "bytes32"
                }
            ],
            "outputs": [
                {
                    "name": "",
                    "type": "uint256",
                    "internalType": "uint256"
                }
            ],
            "stateMutability": "nonpayable"
        },
        {
            "type": "function",
            "name": "endGame",
            "inputs": [
                {
                    "name": "gameId",
                    "type": "uint256",
                    "internalType": "uint256"
                },
                {
                    "name": "_actor",
                    "type": "bytes32",
                    "internalType": "bytes32"
                }
            ],
            "outputs": [],
            "stateMutability": "nonpayable"
        },
        {
            "type": "function",
            "name": "gameActions",
            "inputs": [
                {
                    "name": "",
                    "type": "uint256",
                    "internalType": "uint256"
                },
                {
                    "name": "",
                    "type": "uint256",
                    "internalType": "uint256"
                }
            ],
            "outputs": [
                {
                    "name": "player",
                    "type": "bytes32",
                    "internalType": "bytes32"
                },
                {
                    "name": "actionHash",
                    "type": "bytes32",
                    "internalType": "bytes32"
                },
                {
                    "name": "timestamp",
                    "type": "uint256",
                    "internalType": "uint256"
                }
            ],
            "stateMutability": "view"
        },
        {
            "type": "function",
            "name": "games",
            "inputs": [
                {
                    "name": "",
                    "type": "uint256",
                    "internalType": "uint256"
                }
            ],
            "outputs": [
                {
                    "name": "id",
                    "type": "uint256",
                    "internalType": "uint256"
                },
                {
                    "name": "isActive",
                    "type": "bool",
                    "internalType": "bool"
                },
                {
                    "name": "currentPlayerIndex",
                    "type": "uint256",
                    "internalType": "uint256"
                },
                {
                    "name": "stateHash",
                    "type": "bytes32",
                    "internalType": "bytes32"
                },
                {
                    "name": "lastActionTimestamp",
                    "type": "uint256",
                    "internalType": "uint256"
                },
                {
                    "name": "turnCount",
                    "type": "uint256",
                    "internalType": "uint256"
                },
                {
                    "name": "directionClockwise",
                    "type": "bool",
                    "internalType": "bool"
                },
                {
                    "name": "isStarted",
                    "type": "bool",
                    "internalType": "bool"
                }
            ],
            "stateMutability": "view"
        },
        {
            "type": "function",
            "name": "getActiveGames",
            "inputs": [],
            "outputs": [
                {
                    "name": "",
                    "type": "uint256[]",
                    "internalType": "uint256[]"
                }
            ],
            "stateMutability": "view"
        },
        {
            "type": "function",
            "name": "getGameActions",
            "inputs": [
                {
                    "name": "gameId",
                    "type": "uint256",
                    "internalType": "uint256"
                }
            ],
            "outputs": [
                {
                    "name": "",
                    "type": "tuple[]",
                    "internalType": "struct UnoGame.Action[]",
                    "components": [
                        {
                            "name": "player",
                            "type": "bytes32",
                            "internalType": "bytes32"
                        },
                        {
                            "name": "actionHash",
                            "type": "bytes32",
                            "internalType": "bytes32"
                        },
                        {
                            "name": "timestamp",
                            "type": "uint256",
                            "internalType": "uint256"
                        }
                    ]
                }
            ],
            "stateMutability": "view"
        },
        {
            "type": "function",
            "name": "getGameState",
            "inputs": [
                {
                    "name": "gameId",
                    "type": "uint256",
                    "internalType": "uint256"
                }
            ],
            "outputs": [
                {
                    "name": "players",
                    "type": "bytes32[]",
                    "internalType": "bytes32[]"
                },
                {
                    "name": "isActive",
                    "type": "bool",
                    "internalType": "bool"
                },
                {
                    "name": "currentPlayerIndex",
                    "type": "uint256",
                    "internalType": "uint256"
                },
                {
                    "name": "stateHash",
                    "type": "bytes32",
                    "internalType": "bytes32"
                },
                {
                    "name": "lastActionTimestamp",
                    "type": "uint256",
                    "internalType": "uint256"
                },
                {
                    "name": "turnCount",
                    "type": "uint256",
                    "internalType": "uint256"
                },
                {
                    "name": "directionClockwise",
                    "type": "bool",
                    "internalType": "bool"
                },
                {
                    "name": "isStarted",
                    "type": "bool",
                    "internalType": "bool"
                }
            ],
            "stateMutability": "view"
        },
        {
            "type": "function",
            "name": "isPlayerTurn",
            "inputs": [
                {
                    "name": "gameId",
                    "type": "uint256",
                    "internalType": "uint256"
                },
                {
                    "name": "player",
                    "type": "bytes32",
                    "internalType": "bytes32"
                }
            ],
            "outputs": [
                {
                    "name": "",
                    "type": "bool",
                    "internalType": "bool"
                }
            ],
            "stateMutability": "view"
        },
        {
            "type": "function",
            "name": "joinGame",
            "inputs": [
                {
                    "name": "gameId",
                    "type": "uint256",
                    "internalType": "uint256"
                },
                {
                    "name": "_joinee",
                    "type": "bytes32",
                    "internalType": "bytes32"
                }
            ],
            "outputs": [],
            "stateMutability": "nonpayable"
        },
        {
            "type": "function",
            "name": "startGame",
            "inputs": [
                {
                    "name": "gameId",
                    "type": "uint256",
                    "internalType": "uint256"
                },
                {
                    "name": "initialStateHash",
                    "type": "bytes32",
                    "internalType": "bytes32"
                }
            ],
            "outputs": [],
            "stateMutability": "nonpayable"
        },
        {
            "type": "function",
            "name": "submitAction",
            "inputs": [
                {
                    "name": "gameId",
                    "type": "uint256",
                    "internalType": "uint256"
                },
                {
                    "name": "actionHash",
                    "type": "bytes32",
                    "internalType": "bytes32"
                },
                {
                    "name": "_actor",
                    "type": "bytes32",
                    "internalType": "bytes32"
                }
            ],
            "outputs": [],
            "stateMutability": "nonpayable"
        },
        {
            "type": "event",
            "name": "ActionSubmitted",
            "inputs": [
                {
                    "name": "gameId",
                    "type": "uint256",
                    "indexed": true,
                    "internalType": "uint256"
                },
                {
                    "name": "player",
                    "type": "bytes32",
                    "indexed": false,
                    "internalType": "bytes32"
                },
                {
                    "name": "actionHash",
                    "type": "bytes32",
                    "indexed": false,
                    "internalType": "bytes32"
                }
            ],
            "anonymous": false
        },
        {
            "type": "event",
            "name": "GameCreated",
            "inputs": [
                {
                    "name": "gameId",
                    "type": "uint256",
                    "indexed": true,
                    "internalType": "uint256"
                },
                {
                    "name": "creator",
                    "type": "bytes32",
                    "indexed": false,
                    "internalType": "bytes32"
                }
            ],
            "anonymous": false
        },
        {
            "type": "event",
            "name": "GameEnded",
            "inputs": [
                {
                    "name": "gameId",
                    "type": "uint256",
                    "indexed": true,
                    "internalType": "uint256"
                }
            ],
            "anonymous": false
        },
        {
            "type": "event",
            "name": "GameStarted",
            "inputs": [
                {
                    "name": "gameId",
                    "type": "uint256",
                    "indexed": true,
                    "internalType": "uint256"
                },
                {
                    "name": "initialStateHash",
                    "type": "bytes32",
                    "indexed": false,
                    "internalType": "bytes32"
                }
            ],
            "anonymous": false
        },
        {
            "type": "event",
            "name": "PlayerJoined",
            "inputs": [
                {
                    "name": "gameId",
                    "type": "uint256",
                    "indexed": true,
                    "internalType": "uint256"
                },
                {
                    "name": "player",
                    "type": "bytes32",
                    "indexed": false,
                    "internalType": "bytes32"
                }
            ],
            "anonymous": false
        },
        {
            "type": "error",
            "name": "ReentrancyGuardReentrantCall",
            "inputs": []
        }
    ],
    "bytecode": {
        "object": "0x6080604052348015600f57600080fd5b50600160005561116d806100246000396000f3fe608060405234801561001057600080fd5b50600436106100a95760003560e01c80636e1ef8b2116100715780636e1ef8b2146101bb578063ac952671146101ce578063b5870a68146101e1578063b71d79f314610201578063bfb51ac91461022f578063ffde0c741461024257600080fd5b806305373714146100ae578063117a5b90146100c35780631b76929c14610162578063426fe19714610177578063457391e51461019a575b600080fd5b6100c16100bc366004610e7a565b610269565b005b61011e6100d1366004610ea6565b60036020819052600091825260409091208054600282015492820154600483015460058401546006850154600790950154939560ff90811695939492939192808216916101009091041688565b604080519889529615156020890152958701949094526060860192909252608085015260a0840152151560c0830152151560e0820152610100015b60405180910390f35b61016a6103cd565b6040516101599190610ebf565b61018a610185366004610f02565b610425565b6040519015158152602001610159565b6101ad6101a8366004610ea6565b610466565b604051908152602001610159565b6100c16101c9366004610f02565b610650565b6100c16101dc366004610f02565b61070d565b6101f46101ef366004610ea6565b610805565b6040516101599190610f24565b61021461020f366004610f02565b61092e565b60408051938452602084019290925290820152606001610159565b6100c161023d366004610f02565b610970565b610255610250366004610ea6565b610a78565b604051610159989796959493929190610f78565b610271610bd0565b6000838152600360205260409020600281015460ff166102ac5760405162461bcd60e51b81526004016102a390611002565b60405180910390fd5b6102b68483610425565b6102f25760405162461bcd60e51b815260206004820152600d60248201526c2737ba103cb7bab9103a3ab93760991b60448201526064016102a3565b6004810154604080516020810192909252810184905260600160408051601f198184030181528282528051602091820120600480860191909155600088815290825282812060608501845286855284830188815242948601948552815460018181018455928452939092209451600390930290940191825551928101929092555160029091015561038284610bfa565b604080518381526020810185905285917ff1e0c443bd9ee34af29bcb74145f7bb12125c82a95407bf5ad7b26c8b6e5fe5f910160405180910390a2506103c86001600055565b505050565b6060600280548060200260200160405190810160405280929190818152602001828054801561041b57602002820191906000526020600020905b815481526020019060010190808311610407575b5050505050905090565b60008281526003602081905260408220908101546001909101805484929081106104515761045161102e565b90600052602060002001541490505b92915050565b6000610470610bd0565b600180549060006104808361105a565b90915550506001805460408051426020808301829052448385015260608084018990528451808503909101815260808401855280519082012060a0840186905260c08085018290528551808603909101815260e0850180875281519184019190912061020086018752878252865160008082528186018952610100880191825261012088018b9052610140880181905261016088018390526101808801969096526101a087018690526101c087018a90526101e0909601859052878552600384529590932083518155935180519697919693949361056693928501929190910190610e1a565b506040828101516002838101805460ff191692151592909217909155606084015160038401556080840151600484015560a0840151600584015560c0840151600684015560e0840151600790930180546101009586015161ffff1990911694151561ff001916949094179315159094029290921790925580546001810182556000919091527f405787fa12a823e0f2b7631cc41b3ba8828b3321ca811111fa75cd3aa3bb5ace018490555185815283907fe0eb15f8324648c97893a63e725995febbf40c5ed00da9249b0b1ea5173796f79060200160405180910390a25050600160005592915050565b6000828152600360205260409020600281015460ff166106825760405162461bcd60e51b81526004016102a390611002565b61068c8383610425565b6106c85760405162461bcd60e51b815260206004820152600d60248201526c2737ba103cb7bab9103a3ab93760991b60448201526064016102a3565b60028101805460ff191690556106dd83610d1a565b60405183907fce24807f7e4b60b4e641462f13029fa5e5f79075bbc3f8e5cd43ecd19661d76090600090a2505050565b610715610bd0565b60008281526003602052604090206002015460ff166107465760405162461bcd60e51b81526004016102a390611002565b600082815260036020526040902060010154600a116107965760405162461bcd60e51b815260206004820152600c60248201526b11d85b59481a5cc8199d5b1b60a21b60448201526064016102a3565b6000828152600360209081526040808320600190810180549182018155845291909220018290555182907f52ad9218837bfeb0f1fd09a5e3c004c4b73999fa95ebf54cd2233f8ae44f9d64906107ef9084815260200190565b60405180910390a26108016001600055565b5050565b606060008211801561081957506001548211155b6108575760405162461bcd60e51b815260206004820152600f60248201526e125b9d985b1a590819d85b59481251608a1b60448201526064016102a3565b60008281526003602052604090205482146108aa5760405162461bcd60e51b815260206004820152601360248201527211d85b5948191bd95cc81b9bdd08195e1a5cdd606a1b60448201526064016102a3565b600082815260046020908152604080832080548251818502810185019093528083529193909284015b8282101561092357838290600052602060002090600302016040518060600160405290816000820154815260200160018201548152602001600282015481525050815260200190600101906108d3565b505050509050919050565b6004602052816000526040600020818154811061094a57600080fd5b600091825260209091206003909102018054600182015460029092015490935090915083565b60008281526003602052604090206007810154610100900460ff16156109cf5760405162461bcd60e51b815260206004820152601460248201527311d85b5948185b1c9958591e481cdd185c9d195960621b60448201526064016102a3565b600181015460021115610a195760405162461bcd60e51b81526020600482015260126024820152714e6f7420656e6f75676820706c617965727360701b60448201526064016102a3565b60078101805461ff0019166101001790556004810182905542600582015560405183907fb4a411a01bc386893734d83e17411a973f9dbb12732aff7a88d6964f1360b16090610a6b9085815260200190565b60405180910390a2505050565b606060008060008060008060008089118015610a9657506001548911155b610ad45760405162461bcd60e51b815260206004820152600f60248201526e125b9d985b1a590819d85b59481251608a1b60448201526064016102a3565b600089815260036020526040902080548a14610b285760405162461bcd60e51b815260206004820152601360248201527211d85b5948191bd95cc81b9bdd08195e1a5cdd606a1b60448201526064016102a3565b60028101546003820154600483015460058401546006850154600786015460018701805460408051602080840282018101909252828152929860ff9081169897969594808216946101009091049091169290918a9190830182828015610bad57602002820191906000526020600020905b815481526020019060010190808311610b99575b505050505097509850985098509850985098509850985050919395975091939597565b600260005403610bf357604051633ee5aeb560e01b815260040160405180910390fd5b6002600055565b60008181526003602052604081206006810180549192610c198361105a565b909155505060018082015460038301549091610c359190611073565b610c3f9190611086565b60038201554260058201556040805161012081018252825481526001830180548351602082810282018101909552818152610d11948693818601939091830182828015610cab57602002820191906000526020600020905b815481526020019060010190808311610c97575b5050509183525050600282015460ff90811615156020830152600383015460408301526004830154606083015260058301546080830152600683015460a0830152600790920154808316151560c08301526101009004909116151560e090910152610dc8565b60049091015550565b60005b600254811015610801578160028281548110610d3b57610d3b61102e565b906000526020600020015403610dc05760028054610d5b906001906110a8565b81548110610d6b57610d6b61102e565b906000526020600020015460028281548110610d8957610d8961102e565b6000918252602090912001556002805480610da657610da66110bb565b600190038181906000526020600020016000905590555050565b600101610d1d565b8051602080830151604080850151606086015160a087015160c088015160e08901519451600098610dfd9890979691016110d1565b604051602081830303815290604052805190602001209050919050565b828054828255906000526020600020908101928215610e55579160200282015b82811115610e55578251825591602001919060010190610e3a565b50610e61929150610e65565b5090565b5b80821115610e615760008155600101610e66565b600080600060608486031215610e8f57600080fd5b505081359360208301359350604090920135919050565b600060208284031215610eb857600080fd5b5035919050565b602080825282518282018190526000918401906040840190835b81811015610ef7578351835260209384019390920191600101610ed9565b509095945050505050565b60008060408385031215610f1557600080fd5b50508035926020909101359150565b602080825282518282018190526000918401906040840190835b81811015610ef757835180518452602081015160208501526040810151604085015250606083019250602084019350600181019050610f3e565b610100808252895190820181905260009060208b0190610120840190835b81811015610fb4578351835260209384019390920191600101610f96565b50508a151560208501529150610fc79050565b8760408301528660608301528560808301528460a0830152610fed60c083018515159052565b82151560e08301529998505050505050505050565b60208082526012908201527147616d65206973206e6f742061637469766560701b604082015260600190565b634e487b7160e01b600052603260045260246000fd5b634e487b7160e01b600052601160045260246000fd5b60006001820161106c5761106c611044565b5060010190565b8082018082111561046057610460611044565b6000826110a357634e487b7160e01b600052601260045260246000fd5b500690565b8181038181111561046057610460611044565b634e487b7160e01b600052603160045260246000fd5b878152600060208201885160208a0160005b828110156111015781518452602093840193909101906001016110e3565b50505096151560f890811b885260018801969096525050602185019290925260418401521515901b60618201526062019291505056fea2646970667358221220742acfe2b6cc77eb395625600ed8fa73e9b33b556ddad5d033236726fbd6260864736f6c634300081c0033",
        "linkReferences": {}
    },
    "methodIdentifiers": {
        "createGame(bytes32)": "457391e5",
        "endGame(uint256,bytes32)": "6e1ef8b2",
        "gameActions(uint256,uint256)": "b71d79f3",
        "games(uint256)": "117a5b90",
        "getActiveGames()": "1b76929c",
        "getGameActions(uint256)": "b5870a68",
        "getGameState(uint256)": "ffde0c74",
        "isPlayerTurn(uint256,bytes32)": "426fe197",
        "joinGame(uint256,bytes32)": "ac952671",
        "startGame(uint256,bytes32)": "bfb51ac9",
        "submitAction(uint256,bytes32,bytes32)": "05373714"
    },
    "id": 21
}